:100000000C942E000C9490000C9490000C94900092
:100010000C9490000C9490000C9490000C94900020
:100020000C9490000C9490000C9490000C94900010
:100030000C9490000C9490000C9490000C94900000
:100040000C9490000C9490000C9490000C949000F0
:100050000C9490000060007A00012E0011241FBE55
:10006000CFE5D4E0DEBFCDBFE4E5F0E040E017C06F
:10007000B591A59135912591059107FD0CC09591FC
:100080008591EF01F92FE82F05900D92A217B30784
:10009000D9F7FE0104C01D92A217B307E1F7EB35B3
:1000A000F40731F70E9467000C947300F894FFCFB7
:1000B000CF93DF93EC018881882331F021960E9451
:0E00C000880089918111FBCFDF91CF910895C7
:1000CE000E947E0080E690E00E9458000E948C0004
:0800DE008F5F0E948800FACF39
:1000E600EC010E9495000E949400CE010E949600A9
:0600F600CE010E94920001
:1000FC0010BC83E389B98AB188618AB980B58668F6
:04010C0080BD089515
:080110005D9BFECF8CB9089540
:080118005F9BFECF8CB108953E
:040120000C9400003B
:040124000E945600DF
:02012800089538
:02012A00089536
:02012C00089534
:10012E00436F6D656E7A616E646F20656C207072C0
:0A013E006F6772616D61210D0A0008
:00000001FF
