:020000040000FA
:020000000528D1
:080008005F2813201E200D20CB
:100010002A202720831200000B28831603130530A3
:100020008100811608008316031306309F00831693
:10003000031385018312031385010800FF30860036
:10004000831603138113011390308B00080083166D
:1000500087010800831603131930920083120313DB
:100060000D30950097121712921012109715171550
:1000700097141714080083120313220881008316B3
:10008000031381120B1D42280B1108008312031366
:1000900023088100831603138112831203130B1D9F
:1000A0004F280B11080083120313FF30850012152F
:1000B0003B20831203138501121146200800A00083
:1000C000030EA10083128B1875200B1842210B1907
:1000D0004421210E8300A00E200E8B1086080B10E9
:1000E0000B11831603138116090083127330A200CB
:1000F000B930A30053208312F730A200F730A300D9
:1001000053208312F730A200F730A300532083124C
:10011000F730A200E530A30053208312F730A2008D
:10012000F730A30053208312F730A200F730A3006A
:1001300053208312F730A200F730A300532083121C
:10014000F730A200F730A30053208312F730A2004B
:10015000F730A30053208312F730A200E530A3004C
:1001600053208312F730A200E530A30053208312FE
:10017000F730A200F730A30053208312F730A2001B
:10018000E530A30053208312F730A200E530A3002E
:1001900053208312F730A200E530A30053208312CE
:1001A000F730A200E530A30053208312F730A200FD
:1001B000E530A30053208312F730A200F730A300EC
:1001C00053208312F730A200F730A300532083128C
:1001D000F730A200F730A30053208312F730A200BB
:1001E000E530A30053208312F730A200F730A300BC
:1001F00053208312F730A200F730A300532083125C
:10020000F730A200F730A30053208312F730A2008A
:10021000F730A30053208312F730A200E530A3008B
:1002200053208312F730A200E530A300532083123D
:10023000F730A200E530A30053208312F730A2006C
:10024000F730A30053208312F730A200E530A3005B
:1002500053208312F730A200E530A300532083120D
:10026000F730A200E530A30053208312F730A2003C
:10027000E530A30053208312F730A2000030A30022
:0C028000532008000000080000000800E7
:02400E00F13F80
:00000001FF
