:020000040000FA
:020000000528D1
:08000800782813201E200D20B2
:100010002C202720831200000B28831603130530A1
:100020008100811608008316031306309F00831693
:10003000031385018312031385010800FF30860036
:10004000831603138113011390308B00080083166D
:100050008701831287010800831603131930920069
:10006000831203130D30950097121712921012107D
:1000700097151715971417140800831203132208F5
:1000800081008316031381120B1D44280B110800F5
:100090008312031323088100831603138112831232
:1000A00003130B1D51280B11080083120313FF309B
:1000B000850012153D20831203138501121148207B
:1000C00008008715FA30A4006A20A40A031D6428DA
:1000D000871108006F20A50A031D6A2808007420F4
:1000E000A60A031D6F280800A70A031D742808002C
:1000F000A000030EA10083128B1890200B185D2125
:100100000B195F2161209020210E8300A00E200E8C
:100110008B1086080B100B11831603138116090030
:1001200083127330A200B930A30055208312F73038
:10013000A200F730A30055208312F730A200F73059
:10014000A30055208312F730A200E530A30055200C
:100150008312F730A200F730A30055208312F73046
:10016000A200F730A30055208312F730A200F73029
:10017000A30055208312F730A200F730A3005520CA
:100180008312F730A200F730A30055208312F73016
:10019000A200E530A30055208312F730A200E5301D
:1001A000A30055208312F730A200F730A30055209A
:1001B0008312F730A200E530A30055208312F730F8
:1001C000A200E530A30055208312F730A200E530ED
:1001D000A30055208312F730A200E530A30055207C
:1001E0008312F730A200E530A30055208312F730C8
:1001F000A200F730A30055208312F730A200F73099
:10020000A30055208312F730A200F730A300552039
:100210008312F730A200E530A30055208312F73097
:10022000A200F730A30055208312F730A200F73068
:10023000A30055208312F730A200F730A300552009
:100240008312F730A200F730A30055208312F73055
:10025000A200E530A30055208312F730A200E5305C
:10026000A30055208312F730A200E530A3005520EB
:100270008312F730A200F730A30055208312F73025
:10028000A200E530A30055208312F730A200E5302C
:10029000A30055208312F730A200E530A3005520BB
:1002A0008312F730A200E530A30055208312F83006
:1002B000A2000030A3005520080000000800000044
:0202C000080034
:02400E00F13F80
:00000001FF
